:020000040800F2
:1000000048220020E1010008311C0008EB01000833
:100010002D1C00081904000823020008000000003D
:10002000000000000000000000000000570200086F
:1000300027040008000000008D010008A51C00082E
:10004000B1020008B1020008B1020008B1020008C4
:10005000B1020008B1020008B1020008B1020008B4
:10006000B1020008B1020008B1020008B1020008A4
:10007000B1020008B1020008B1020008B102000894
:10008000B1020008B1020008B1020008B102000884
:10009000B1020008B1020008B1020008B102000874
:1000A000B1020008B1020008B1020008B102000864
:1000B000B1020008B1020008B1020008B102000854
:1000C000B1020008B1020008B1020008B102000844
:1000D000B1020008B5200008B1020008E9200008BC
:1000E00029040008B1020008B1020008B1020008AA
:1000F000411D0008B1020008B1020008B102000869
:10010000B1020008B1020008B1020008B102000803
:10011000B1020008B1020008B1020008B1020008F3
:10012000B1020008B1020008B1020008B1020008E3
:10013000DFF810D000F030F90048004759260008D9
:10014000AFF3008048220020224B19680868B0E80D
:10015000F00F80F30988BFF36F8F4FF0000080F33A
:1001600011884EF00D0E7047000000000648006830
:10017000006880F3088862B661B6BFF34F8FBFF3A3
:100180006F8F00DF00BF00BF08ED00E0EFF30980D4
:10019000BFF36F8F0F4B1A6820E9F00F106008B59E
:1001A0004FF0500080F31188BFF34F8FBFF36F8F74
:1001B00003F088FD4FF0000080F31188BDE808408F
:1001C00019680868B0E8F00F80F30988BFF36F8FF3
:1001D000704700BF1C000020EFF30580704700004F
:1001E0003448804734480047FEE71EF0040F0CBF38
:1001F000EFF30880EFF3098020E9F00F40F804EDF9
:100200001EF0040F0CBF80F3088880F3098800B546
:1002100003F0C2F85DF804EB4EF0040E7047FEE701
:10022000FEE71EF0040F0CBFEFF30880EFF3098028
:1002300020E9F00F40F804ED1EF0040F0CBF80F32E
:10024000088880F3098800B503F018FA5DF804EB1C
:100250004EF0040E70471EF0040F0CBFEFF3088041
:10026000EFF3098003468169A1F102010A8812F0C7
:10027000FF023FF469AF20E9F00F40F804ED1EF0F3
:10028000040F0CBF80F3088880F3098808B503F0D9
:1002900073F9BDE8084000EB03011EF0040F0CBF2A
:1002A00081F3088881F309887047FEE7FEE7FEE7DF
:1002B000FEE700003F1D000831010008202A04DB92
:1002C000203A21FA02F00021704721FA02F3D040CF
:1002D000C2F12002914008431946704740EA0103E9
:1002E0009B0703D009E008C9121F08C0042AFAD2EC
:1002F00003E011F8013B00F8013B521EF9D27047B0
:10030000D2B201E000F8012B491EFBD27047002257
:10031000F6E710B513460A4604461946FFF7F0FF04
:10032000204610BD034611F8012B00F8012B002ACE
:10033000F9D1184670472DE9F05F05460020924636
:100340009B4688460646814640241BE02846414697
:1003500047462246FFF7B2FF53465A46C01A91411C
:1003600010D311461846224600F028F82D1A67EBE4
:1003700001084F4622460120002100F01FF817EB2C
:1003800000094E41201EA4F10104DFDC484631463D
:100390002A464346BDE8F09F064C074D06E0E0685C
:1003A00040F0010394E8070098471034AC42F6D3BC
:1003B000FFF7C2FEB44A0008D44A0008202A04DB32
:1003C000203A00FA02F1002070479140C2F1200368
:1003D00020FA03F319439040704700B589B001201B
:1003E0000890684600F006F8089800F017F809B081
:1003F00000BD000010B5044602A12046FFF792FFA1
:1004000010BD00003139322E3136382E3130302EC9
:10041000313036200000000000BFFEE701466420B6
:1004200090FBF1F07047704710B54FF4804000F03A
:1004300039F94FF4004000F035F910BD10B5012234
:100440000021252000F094FB252000F081FB0448CA
:100450000068C06840F0200001490968C86010BD0C
:10046000A004002072B600BFFEE70146002291F80A
:100470002100022808D00420886300BF002081F8F2
:10048000200000BF012070470868006820F00E00BF
:100490000B6818600868006820F001000B6818609D
:1004A00091F8403001209840CB6B5860012081F8D2
:1004B000210000BF002081F8200000BF1046E2E7C5
:1004C00070B50446002594F82100022803D00420CA
:1004D000A0630125C1E02068006820F00E002168BB
:1004E00008602068006820F00100216808605C490D
:1004F0002068884252D95A4978392068884201D107
:10050000012047E0564964392068884201D1102013
:1005100040E0534950392068884201D1801539E0C4
:100520004F493C392068884201D1801432E04C495F
:1005300028392068884202D14FF480302AE04849A7
:1005400014392068884202D14FF4801022E04449D7
:100550002068884201D140041CE04249206888425A
:1005600001D1012016E03F4914312068884201D1B1
:1005700010200FE03B4928312068884201D18015C6
:1005800008E038493C312068884201D1801401E0FC
:100590004FF480303349091F086051E03049783901
:1005A0002068884201D1012047E02D496439206844
:1005B000884201D1102040E0294950392068884202
:1005C00001D1801539E026493C392068884201D1A3
:1005D000801432E0224928392068884202D14FF441
:1005E00080302AE01E4914392068884202D14FF435
:1005F000801022E01A492068884201D140041CE0A2
:1006000018492068884201D1012016E015491431AB
:100610002068884201D110200FE01249283120685B
:10062000884201D1801508E00E493C31206888429B
:1006300001D1801401E04FF48030094980394860CD
:10064000012084F8210000BF002084F8200000BFB2
:10065000606B10B12046616B8847284670BD000072
:10066000800002400804024010B50446B4F5804FF3
:1006700007D14FF48041084800F0C2F907490870DB
:1006800009E0B4F5004F06D14FF40041024800F0F4
:10069000B7F90349087010BD001801401700002089
:1006A0001800002010B5044604480068204020B11E
:1006B000024804602046FFF7D7FF10BD1404014034
:1006C0002DE9F847024600239C467BE14FF00108E4
:1006D00008FA03F4D1F8008008EA0400A0427DD1B2
:1006E000DFF8F4A2D1F80480A8EB0A09D0453AD08B
:1006F00014DCB8F1030F50D009DCB8F1000F31D091
:10070000B8F1010F1CD0B8F1020F49D120E0B8F1C7
:10071000110F18D0B8F1120F42D11EE0B9F5881FA1
:1007200025D006DCB9F5803F20D0B9F5801F37D140
:100730001AE0B9F5001F18D0B9F5041F30D117E041
:10074000D1F80CC02DE0D1F80C8008F1040C28E0A1
:10075000D1F80C8008F1080C23E0D1F80C8008F1E6
:100760000C0C1EE000BF00BF00BF00BF00BF00BFF9
:10077000D1F80880B8F1000F02D14FF0040C0BE063
:10078000D1F80880B8F1010F03D14FF0080C1461C3
:1007900002E04FF0080C546103E04FF0000C00E061
:1007A00000BF00BFFF2801D8904601E002F1040815
:1007B0004646FF2802D84FEA830803E0A3F1080861
:1007C0004FEA88084746D6F800804FF00F0909FA2B
:1007D00007F928EA09080CFA07F900E07AE048EA84
:1007E0000908C6F80080D1F8048008F08058B8F1F4
:1007F000805F6FD100BFDFF8E481D8F8188048F03F
:100800000108DFF8D891C9F81880C846D8F81880D0
:1008100008F00108CDF8008000BF00BF4FEAB938EA
:100820004FEA930958F829504FEA83784FEA18792C
:100830004FF00F0808FA09F825EA0805DFF8A0814B
:10084000424502D14FF0000824E0DFF8988142458C
:1008500002D14FF001081DE0DFF88C81424502D142
:100860004FF0020816E0DFF88481424502D14FF0D4
:1008700003080FE0DFF87881424502D14FF0040809
:1008800008E0DFF87081424502D14FF0050801E031
:100890004FF006084FEA83794FEA197908FA09F808
:1008A00048EA0505DFF850814FEA930948F82950D6
:1008B000D1F8048008F48038B8F5803F0BD1DFF818
:1008C0003C81D8F8008048EA0008DFF83091C9F888
:1008D00000800AE075E0DFF82481D8F8008028EA7B
:1008E0000008DFF81891C9F80080D1F8048008F4F6
:1008F0000038B8F5003F0ED1DFF8008108F1040898
:10090000D8F8008048EA0008DFF8F09009F10409FF
:10091000C9F800800DE0DFF8E48008F10408D8F899
:10092000008028EA0008DFF8D49009F10409C9F82A
:100930000080D1F8048008F48018B8F5801F0ED12B
:10094000DFF8B88008F10808D8F8008048EA000805
:10095000DFF8A89009F10809C9F800800DE0DFF878
:100960009C8008F10808D8F8008028EA0008DFF821
:100970008C9009F10809C9F80080D1F8048008F4C6
:100980000018B8F5001F0ED1DFF8708008F10C08D0
:10099000D8F8008048EA0008DFF8609009F10C09F7
:1009A000C9F800800DE0DFF8548008F10C08D8F891
:1009B000008028EA0008DFF8449009F10C09C9F822
:1009C00000805B1CD1F8008028FA03F8B8F1000F12
:1009D0007FF47CAEBDE8F8870000111000100240E3
:1009E00000080140000C01400010014000140140CB
:1009F00000180140001C01400800014000040140B3
:100A0000024693680B400BB1012000E000207047C4
:100A10000AB1016101E00B040361704701480068FD
:100A2000704700000400002003480068034909786B
:100A30000844014908607047040000200C000020B1
:100A400010B50848006840F010000649086003200F
:100A500000F0CCF80F2000F007F800F049F8002073
:100A600010BD00000020024070B588B0044600258B
:100A70000026002221462C2000F07AF82C2000F0DD
:100A800067F800BF1648806940F400501449886137
:100A90000846806900F40050019000BF00BF02A921
:100AA00003A800F07DF900F0B3F905460D48B5FB49
:100AB000F0F0461E0C480D49086040F2E7310B4843
:100AC000C160466000210161816000F02FFC20B907
:100AD000064800F05FFC08B070BD0120FBE7000095
:100AE0000010024040420F00003401402805002061
:100AF00008B500BF1448806940F0010012498861C0
:100B00000846806900F00100009000BF00BF00BFF0
:100B10000846C06940F08050C8610846C06900F0CE
:100B20008050009000BF00BF00220F21901E00F0F7
:100B30001FF800BF0549486820F0E06040F00070F1
:100B4000486000BF08BD00000010024000000140E6
:100B500001460846002809DB00F01F0301229A40E5
:100B600043099B0003F1E023C3F8002100BF704755
:100B70002DE9F05F80460D461646002701F0D6FAB3
:100B8000074639462A46334601F00700C0F1070AF6
:100B9000BAF1040F02D94FF0040A01E0C0F1070ACC
:100BA000D14600F1040ABAF1070F02D24FF0000A51
:100BB00001E0A0F1030AD4464FF0010A0AFA09FA4B
:100BC000AAF1010A0AEA020A0AFA0CFA4FF0010B2A
:100BD0000BFA0CFBABF1010B0BEA030B4AEA0B041B
:100BE0002146404601F0AAFABDE8F09F00BF00F0A0
:100BF0000702064B19684FF6FF031940044B0B43DD
:100C000043EA0221014B196000BF70470CED00E080
:100C10000000FA0570B504460D460CB9012070BD00
:100C20005A48006800F00700A8420ED257480068F2
:100C300020F007002843554908600846006800F086
:100C40000700A84201D00120E9E7207800F0020067
:100C500002281DD1207800F00400042805D14C485A
:100C6000406840F4E0604A494860207800F008009D
:100C7000082805D14648406840F46050444948601F
:100C80004348406820F0F000A168084340494860AC
:100C9000207800F0010078B36068012806D13C4854
:100CA000006800F4003090B90120B8E760680228BD
:100CB00006D13748006800F0007040B90120AEE767
:100CC0003348006800F0020008B90120A7E7304867
:100CD000406820F00300616808432D494860FFF731
:100CE0009DFE064609E0FFF799FE801B41F2883120
:100CF000884202D9032092E707E02548406800F0C7
:100D00000C006168B0EB810FEDD12048006800F065
:100D10000700A8420ED91D48006820F007002843AC
:100D20001A4908600846006800F00700A84201D090
:100D3000012074E7207800F00400042807D114484B
:100D4000406820F4E060E168084311494860207879
:100D500000F00800082808D10D48406820F46050D1
:100D6000216940EAC1000A49486000F061F8084979
:100D70004968C1F30311074A515CC840064908603D
:100D800006480068FFF770FE002048E70020024098
:100D900000100240444A0008100000200800002013
:100DA0000F2202600D4A526802F0030242600B4AB1
:100DB000526802F0F0028260084A526802F4E0626F
:100DC000C260064A526802F46052D2080261044AC4
:100DD000126802F007020A6070470000001002402B
:100DE0000020024001480068704700001000002009
:100DF00000B5FFF7F7FF04494968C1F30221034A30
:100E0000515CC84000BD000000100240544A000878
:100E100000B5FFF7E7FF04494968C1F3C221034A5F
:100E2000515CC84000BD000000100240544A000858
:100E3000F0B585B00FF26C0C9CE8E01001A8A0E8BA
:100E4000E0101CA52D68009500210022002300243D
:100E50000020194D696801F00C05F5B1042D02D090
:100E6000082D19D101E0154819E001ADC1F3834601
:100E7000AC5D01F4803555B10F4D6D68C5F340454B
:100E80001DF805200D4D6543B5FBF2F302E00C4D56
:100E900004FB05F3184602E000BF084800BF00BF8E
:100EA00005B0F0BD02030405060708090A0B0C0D86
:100EB0000E0F1010010200000010024000127A0014
:100EC00000093D00F8B504460CB90120F8BD2078B2
:100ED00000F00100002878D0F848406800F00C00CD
:100EE00004280CD0F548406800F00C00082811D107
:100EF000F248406800F48030B0F5803F0AD1EF48F6
:100F0000006800F4003000285FD0606800285CD1E1
:100F10000120DBE700BF6068B0F5803F06D1E748FD
:100F2000006840F48030E549086028E0606858B9FE
:100F3000E248006820F48030E04908600846006814
:100F400020F4802008601AE06068B0F5A02F0BD173
:100F5000DA48006840F48020D849086008460068F4
:100F600040F4803008600AE0D448006820F4803003
:100F7000D24908600846006820F48020086000BF5D
:100F8000606888B1FFF74AFD054606E0FFF746FDB9
:100F9000401B642801D9032098E7C848006800F482
:100FA00000300028F2D010E0FFF738FD054606E0DB
:100FB000FFF734FD401B642801D9032086E7BF48B2
:100FC000006800F400300028F2D1207800F0020020
:100FD000022857D1B948406800F00C0050B1B7481A
:100FE000406800F00C00082818D1B448406800F4AC
:100FF000803098B9B148006800F0020020B1206943
:10100000012801D0012061E7AC48006820F0F80019
:10101000616940EAC100A949086033E02069E8B18C
:101020000120A7490860FFF7F9FC054606E0FFF735
:10103000F5FC401B022801D9032047E79F480068C0
:1010400000F002000028F2D09C48006820F0F80070
:10105000616940EAC1009949086013E0002098499D
:101060000860FFF7DBFC054606E0FFF7D7FC401BF6
:10107000022801D9032029E79048006800F0020007
:101080000028F2D1207800F0080008282DD1A069AE
:10109000B8B101208B490860FFF7C0FC054606E0A7
:1010A000FFF7BCFC401B022801D903200EE7834850
:1010B000406A00F002000028F2D0012000F0BAFDE2
:1010C00013E000207F490860FFF7A8FC054606E012
:1010D000FFF7A4FC401B022801D90320F6E677485D
:1010E000406A00F002000028F2D1207800F00400ED
:1010F000042873D100277148C06900F0805070B98E
:1011000000BF6E48C06940F080506C49C861084615
:10111000C06900F08050009000BF00BF01276A48FE
:10112000006800F48070B0B96748006840F48070CF
:1011300065490860FFF772FC054606E0FFF76EFCA4
:10114000401B642801D90320C0E65F48006800F412
:1011500080700028F2D000BFE068012806D157480F
:10116000006A40F001005549086227E0E06858B97C
:101170005248006A20F00100504908620846006A9F
:1011800020F00400086219E0E06805280BD14B4804
:10119000006A40F00400494908620846006A40F0CD
:1011A000010008620AE04548006A20F00100434956
:1011B00008620846006A20F00400086200BFE06888
:1011C000A0B1FFF72BFC054609E0FFF727FC401B09
:1011D00041F28831884202D9032077E622E037487D
:1011E000006A00F002000028EFD012E0FFF716FCC2
:1011F000054608E0FFF712FC401B41F288318842A7
:1012000001D9032062E62D48006A00F002000028A0
:10121000F0D1012F05D12948C06920F0805027491D
:10122000C86100BFE069C8B32448406800F00C0002
:10123000082860D0E069022848D1002020490866CB
:10124000FFF7ECFB054606E0FFF7E8FB401B022832
:1012500001D903203AE61948006800F00070002820
:10126000F2D1206AB0F5803F07D11448406820F4DD
:101270000030A168084311494860D4E908010843D7
:101280000E49496821F4741108430C494860012053
:101290000B490866FFF7C2FB054607E03DE0FFF794
:1012A000BDFB401B022801D903200FE6034800685C
:1012B00000F000700028F2D02FE000000010024083
:1012C0000000424280044242007000400020144965
:1012D0000866FFF7A3FB054606E0FFF79FFB401BF0
:1012E000022801D90320F1E50E48006800F00070E3
:1012F0000028F2D111E0E069012800D1E6E50948B3
:10130000466806F48031206A814204D106F47011E7
:10131000606A814201D00120D8E50020D6E50000B6
:1013200000004242001002407047704710B504466A
:101330000CB9012010BD94F83D0028B9002084F8B4
:101340003C00204600F025F8022084F83D00211DD5
:10135000206800F0FDFC012084F8460000BF84F8FE
:101360003E0001213F2001554020015541200155FB
:1013700000BF00BF012084F84200432001554420F3
:1013800001554520015500BF012084F83D00002093
:10139000D0E77047014691F83D00012801D00120B7
:1013A0007047022081F83D000868C06840F00100E5
:1013B0000B68D860164B0868984213D0154B086824
:1013C00098420FD00868B0F1804F0BD0124B0868DC
:1013D000984207D0114B0868984203D0104B086818
:1013E00098420CD10868806800F00702062A0CD0E9
:1013F0000868006840F001000B68186005E00868A4
:10140000006840F001000B6818600020C8E7000089
:10141000002C01400034014000040040000800405E
:10142000000C0040704710B5044620680069C0F306
:101430004000D8B12068C068C0F34000B0B16FF080
:10144000020021680861012020772068806900F08F
:10145000030018B12046FFF7E5FF05E0204600F045
:10146000ADF8204600F0ABF8002020772068006936
:10147000C0F38000D8B12068C068C0F38000B0B16C
:101480006FF00400216808610220207720688069DD
:1014900000F4407018B12046FFF7C4FF05E0204675
:1014A00000F08CF8204600F08AF8002020772068B1
:1014B0000069C0F3C000D8B12068C068C0F3C000A4
:1014C000B0B16FF00800216808610420207720681F
:1014D000C06900F0030018B12046FFF7A3FF05E044
:1014E000204600F06BF8204600F069F800202077D5
:1014F00020680069C0F30010D8B12068C068C0F34C
:101500000010B0B16FF0100021680861082020774A
:101510002068C06900F4407018B12046FFF782FFD0
:1015200005E0204600F04AF8204600F048F8002088
:1015300020772068006900F0010058B12068C06879
:1015400000F0010030B16FF0010021680861204611
:1015500000F036F820680069C0F3C01058B1206868
:10156000C068C0F3C01030B16FF08000216808611E
:101570002046FFF7D9FE20680069C0F3801058B1FB
:101580002068C068C0F3801030B16FF0400021685F
:101590000861204600F020F820680069C0F3401080
:1015A00058B12068C068C0F3401030B16FF020001F
:1015B000216808612046FFF7B8FE10BD70477047EC
:1015C00010B5044603492068884201D1FFF72CFA80
:1015D00010BD0000003401407047704770470000A4
:1015E0002DE9F84F0446206805682068C668206821
:1015F00047694FF00009CA4605F00F09B9F1000F1D
:101600000AD105F0200038B106F0200020B12046B4
:1016100000F02FFCBDE8F88FB9F1000F71D007F092
:10162000010018B906F4907000286AD005F0010096
:1016300030B106F4807018B1206C40F001002064D5
:1016400005F0040030B107F0010018B1206C40F043
:101650000200206405F0020030B107F0010018B16B
:10166000206C40F00400206405F0080048B106F04A
:10167000200010B907F0010018B1206C40F00800FC
:101680002064206C68B305F0200028B106F020002B
:1016900010B1204600F0EDFB20684069C0F3801ACD
:1016A000206C00F0080010B9BAF1000F22D02046DB
:1016B00000F0B4FB2068406900F04000B0B1206841
:1016C000406920F0400021684861A06B50B1564845
:1016D000A16B4863A06BFEF7F3FE10B1A06B416BEA
:1016E00088470CE02046FFF779FF08E02046FFF727
:1016F00075FF04E02046FFF771FF0020206489E7B2
:10170000FFE7206B012878D105F01000002874D085
:1017100006F01000002870D000BF00200090206864
:101720000068009020684068009000BF00BF2068FB
:10173000406900F04000C0B3A06B006840681FFA29
:1017400080F8B8F1000F2FD0A08D40452CDDA4F813
:101750002E80A06B806920281FD02068C06820F4EC
:1017600080702168C8602068406920F0010021680D
:1017700048612068406920F04000216848612020CD
:1017800084F83E00002020632068C06820F010002C
:101790002168C860A06BFEF768FEA08DE28D801AFC
:1017A00081B22046FFF719FF34E7FFE7A08DE18DF6
:1017B000401A1FFA80F8E08DE8B1B8F1000F1AD096
:1017C0002068C06820F490702168C8602068406973
:1017D00020F0010021684861202084F83E000020AC
:1017E00020632068C06820F010002168C86041466E
:1017F0002046FFF7F2FE0DE7FFE705F0800030B16D
:1018000006F0800018B1204600F024FC02E705F045
:10181000400030B106F0400018B1204600F019FB3E
:10182000F8E600BFF6E60000091E000810B5044601
:101830000CB9012010BDA06900B100E000BF94F810
:101840003D0028B9002084F83C00204600F028F82C
:10185000242084F83D002068C06820F400502168EE
:10186000C860204600F078FB2068006920F49040B2
:10187000216808612068406920F02A0021684861D9
:101880002068C06840F400502168C86000202064CF
:10189000202084F83D0084F83E000020CAE70000C4
:1018A00010B586B004460020029003900490059085
:1018B0003E492068884230D100BF3D48806940F4ED
:1018C00080403B4988610846806900F4804001906F
:1018D00000BF00BF00BF0846806940F00400886177
:1018E0000846806900F00400019000BF00BF481561
:1018F0000290022003900320059002A92D48FEF7D4
:10190000DFFE4FF4806002900020039001200490DD
:1019100002A92848FEF7D4FE45E0274920688842FE
:1019200041D100BF2248C06940F480202049C861ED
:101930000846C06900F48020019000BF00BF00BFCE
:101940000846806940F0200088610846806900F000
:101950002000019000BF00BF881502900220039074
:101960000320059002A91548FEF7AAFE4FF4007067
:10197000029000200390049002A91048FEF7A0FEF8
:1019800000BF0F49486820F0300040F0E06040F0B0
:101990003000486000BF002205212720FFF7E8F84B
:1019A0002720FFF7D5F806B010BD00000038014031
:1019B00000100240000801400048004000140140AF
:1019C00000000140034A0168914202D10121024A0C
:1019D000117070470038014015000020034A01686B
:1019E000914202D10121024A117070470038014032
:1019F0001400002000B585B00020019002900390F3
:101A0000049000BF1A48806940F04000184988617E
:101A10000846806900F04000009000BF00BF00BF92
:101A20000846806940F0400088610846806900F0FF
:101A30004000009000BF00BF0E48029001200390BC
:101A40008003019001A90C48FEF73AFE4FF40040D4
:101A5000019001A90848FEF733FE02220021282048
:101A6000FFF786F82820FFF773F805B000BD0000E7
:101A700000100240000031100018014010B5044A67
:101A80000021044800F06EFE0349086010BD00000C
:101A9000204A00085D1C00080000002000B585B049
:101AA0000020019002900390049000BF3F4880699D
:101AB00040F040003D4988610846806900F04000E0
:101AC000009000BF00BF00BF0846806940F01000D2
:101AD00088610846806900F01000009000BF00BFD8
:101AE00000BF0846806940F0800088610846806930
:101AF00000F08000009000BF00BF00BF0846806972
:101B000040F0200088610846806900F020000090C5
:101B100000BF00BF00BF0846806940F00400886134
:101B20000846806900F00400009000BF00BF012259
:101B300040211F48FEF76CFF01224FF478611D48D9
:101B4000FEF766FF012240211B48FEF761FF40209F
:101B500001900120029003900320049001A91448F1
:101B6000FEF7AEFD4FF478600190012002900390E3
:101B70000320049001A90F48FEF7A2FD4FF4404056
:101B80000190002002900120039001A90848FEF76F
:101B900097FD4020019001200290039003200490C3
:101BA00001A90548FEF78CFD05B000BD00100240FC
:101BB00000180140001C01400010014010B50B4806
:101BC0000B4908604FF4E13048600021084881600B
:101BD000C16001610C21416100218161C161FFF798
:101BE00025FE08B1FEF73EFC10BD000000380140A4
:101BF000A004002010B50B480B4908604FF4E130F9
:101C00004860002108488160C16001610C21416188
:101C100000218161C161FFF709FE08B1FEF722FCD6
:101C200010BD000000480040E404002000BFFEE7B3
:101C300000BFFEE708B508490968C9084FF47A7281
:101C4000B1FBF2F14143009100BF00BF00994A1E71
:101C500000920029F9D108BD10000020002406A040
:101C600000F054FA00BF2146641C08A000F04EFAB0
:101C7000012000F019FDF6E7537461727444656643
:101C800061756C745461736B0D0A0000537461725A
:101C90007444656661756C745461736B203A2025D9
:101CA000640D0A0010B500BF502080F31188BFF307
:101CB0004F8FBFF36F8F00BF02F072FC18B14FF06F
:101CC00080500449086000BF002080F3118800BFE5
:101CD00010BD000004ED00E000B58FB0282105A87C
:101CE000FEF715FB14216846FEF711FB0120059055
:101CF00000040690002007900120099002200C901B
:101D0000C1030D914FF4E0110E9105A8FFF7DAF829
:101D100008B1FEF7A7FB0F200090022001900020E1
:101D200002904FF4806003900020049002216846E6
:101D3000FEF770FF08B1FEF795FB0FB000BD7047CE
:101D400010B50248FFF76FFB10BD0000280500200A
:101D500010B50268204B98420ED0204B98420BD011
:101D6000B0F1804F08D01E4B984205D01D4B9842D1
:101D700002D01D4B984203D122F070024B681A43E7
:101D8000154B98420ED0154B98420BD0B0F1804FB6
:101D900008D0134B984205D0124B984202D0124BF8
:101DA000984203D122F44072CB681A4322F0800398
:101DB0004C6943EA040202608B68C3620B68836269
:101DC000054B984202D0054B984201D10B69036341
:101DD0000123436110BD0000002C0140003401408C
:101DE0000004004000080040000C004010B5054C05
:101DF000206840F01000206000F07EF9FEF7EDFA58
:101E000010BD000014ED00E070B505466C6A0020BE
:101E1000E085E0842046FFF7E1FB70BD0168C968FA
:101E200021F490710268D1600168496921F00101D3
:101E300002685161016B012905D10168C96821F06F
:101E400010010268D160202180F83E10002101635A
:101E5000704710B504462068C06820F04000216833
:101E6000C860202084F83D002046FFF7B7FD002021
:101E700010BDF8B5044694F83E00222869D1A06848
:101E8000B0F5805F0CD1206950B90025A66A2068A2
:101E90004068C0F308003080A06A801CA06215E092
:101EA000A56A0026A068B0F5805F03D0A06828B9B5
:101EB000206918B920684068287004E020684068EC
:101EC00000F07F002870A06A401CA062E08D401ED8
:101ED00080B2E085A8BB2068C06820F0200021689F
:101EE000C8602068C06820F480702168C8602068DD
:101EF000406920F0010021684861202084F83E00FC
:101F0000206B01281ED1002020632068C06820F0CB
:101F100010002168C8602068006800F010001028D8
:101F20000AD100BF0020009020680068009020685F
:101F30004068009000BF00BFA18D2046FFF74DFB19
:101F400003E004E02046FFF73DFD0020F8BD00203F
:101F5000FCE70220FAE7000070B504462168096931
:101F600021F44051E2681143226811612269A1689D
:101F70001143626941EA02052168C96841F20C62B5
:101F8000914329432268D1602168496921F4407155
:101F9000A2691143226851612D4A2168914202D100
:101FA000FEF736FF01E0FEF723FF00EBC00101EB77
:101FB000001162689200B1FBF2F100EBC00202EB8B
:101FC000001263689B00B2FBF3F26423B2FBF3F2EE
:101FD00002EBC20303EB0212A1EB8201322202EBFD
:101FE00001116422B1FBF2F101F0F00100EBC0023B
:101FF00002EB001263689B00B2FBF3F26423B2FBB6
:10200000F3F201EB021200EBC00101EB0011636877
:102010009B00B1FBF3F100EBC00303EB0013666818
:10202000B600B3FBF6F36426B3FBF6F303EBC3068B
:1020300006EB0313A1EB8301322303EB01116423AD
:10204000B1FBF3F101F00F0111442268916070BD02
:1020500000380140014691F83D00212828D18868C8
:10206000B0F5805F0BD1086948B90A6A1088C0F3DF
:1020700008000B685860086A801C086205E00B6A5B
:10208000581C086218780B685860C88C401E80B2D3
:10209000C88458B90868C06820F080000B68D86010
:1020A0000868C06840F040000B68D86000207047A6
:1020B0000220FCE710B500240848006800F020006A
:1020C00038B10648001D0068C4B20549204601F039
:1020D00053F90448FFF784FA10BD000000380140AE
:1020E00098000020A004002010B50248FFF778FAFD
:1020F00010BD0000E40400200348006840F4802084
:10210000014908607047000024ED00E00FB4054B62
:1021100010B503A9044A029800F03CF810BC5DF821
:1021200014FB00001D2600089400002002480068EF
:10213000C0F30220704700000CED00E010B500284D
:1021400004DB0A07130E054A135406E00A07140EAF
:10215000034A00F00F031B1FD45410BD00E400E03D
:1021600018ED00E0EFF311807047EFF30580704742
:10217000EFF31080704702E008C8121F08C1002A60
:10218000FAD170477047002001E001C1121F002AF8
:10219000FBD170472DE9FF4F8DB00F460546002655
:1021A00006E025280BD0DDE90F1290476D1C761C48
:1021B00028780028F5D111B03046BDE8F08F002412
:1021C000A246A1460122E94900E0044315F8013F77
:1021D000203B02FA03F00842F7D128782A2810D0D1
:1021E0006FF02F022878A0F13001092914D80AEBEA
:1021F0008A0102EB410144F0020400EB010A6D1C6C
:10220000F0E701CF5FEA000A03D544F40054CAF1B5
:10221000000A44F002046D1C28782E2817D115F806
:10222000010F44F004042A280ED06FF02F02287802
:10223000A0F1300109290AD809EB890102EB41011B
:1022400000EB01096D1CF2E757F8049B6D1C287820
:102250006C280FD006DC4C2817D068280DD06A28CF
:1022600014D104E0742810D07A280FD10DE044F482
:1022700000140AE044F4801401E044F44014697846
:10228000814202D104F580146D1C6D1C28786E28E3
:102290001ED00CDC632830D004DC00288BD05828FA
:1022A00011D19FE0642867D069280CD164E07328BD
:1022B0002DD004DC6F2872D0702804D194E07528EA
:1022C0006ED078286DD0DDE90F129047761C4BE177
:1022D000C4F30250022806D0032809D0042801CFF5
:1022E00009D0066040E101CFF117C0E900613BE190
:1022F00001CF068038E1067036E117F8040B8DF83F
:10230000000000208DF80100EB46012003E057F8A3
:1023100004BB4FF0FF3061074FF0000102D40DE025
:1023200008F10101884649450FDA8045F8DB1BF8C2
:1023300008100029F4D108E008F101018846814223
:10234000FADB1BF808100029F6D1DDE90F23AAEB10
:1023500008008146214600F031F9304400EB0806C0
:1023600004E0DDE90F121BF8010B9047B8F10108FA
:10237000F7D221464846F2E00A21C4F302524FF058
:10238000000B0891022A04D001CFC117032A09D0FB
:102390000AE0FF1D27F00707F7E8020108E02CE03C
:1023A0001EE01FE000B2C117042A01D140B2C117DC
:1023B000021E71F1000206DA0023D0EB030063EB8A
:1023C00001012D2202E0220504D52B228DF82420C4
:1023D000012203E0E20701D02022F7E7904653E014
:1023E0000A210BE0102109E010214FF0000B44F00E
:1023F00004044FF00809089103E008214FF0000B96
:102400000891C4F30252022A04D001CF0021032A0A
:1024100006D006E0FF1D27F00707F7E8020103E0FA
:1024200080B2042A00D1C0B24FF0000822072BD599
:102430002A78702A07D0DDF820C08CF0100C5CEAF6
:102440000B0C05D00EE040228DF82420012208E07C
:1024500050EA010306D030238DF824308DF8252072
:1024600002229046089B83F0080353EA0B030BD12A
:1024700050EA010201D1620706D530228DF82420EE
:102480004FF00108A9F101092A78582A04D038A28E
:102490000B9208AA0A920BE03AA2F9E75B46089A67
:1024A000FDF749FF0B9B9B5C0A9A521E0A92137020
:1024B00050EA0102F2D10A98ADEB000000F1200BC6
:1024C000600702D524F4803401E04FF00109D945BA
:1024D00002DDA9EB0B0000E0002000EB0B01414402
:1024E0000890AAEB010AE00306D4DDE90F23214698
:1024F000504600F063F806444FF0000908E009A9CF
:1025000011F80900DDE90F12904709F10109761C65
:10251000C145F4DBE0030CD5DDE90F23214650462D
:1025200000F04CF8064404E0DDE90F12302090473B
:10253000761C0899481E08900029F5DC08E00A98E6
:102540000A990078491C0A91DDE90F129047761C20
:10255000BBF10001ABF1010BF1DC21465046DDE996
:102560000F2300F019F806446D1C21E6092801002C
:1025700030313233343536373839616263646566F9
:1025800000000000303132333435363738394142BB
:1025900043444546000000002DE9F0410446002573
:1025A0001E461746880404D405E039462020B0476B
:1025B0006D1C641EF9D52846BDE8F0812DE9F04177
:1025C000044600251E469046C80301D5302700E08A
:1025D0002027880404D505E041463846B0476D1CE5
:1025E000641EF9D52846BDE8F08101460B884A886B
:1025F00002F47840B0F5784F06D103F47840B0F596
:10260000704F01D10120704702F47F40B0F58E4F2A
:1026100001D10120F7E70020F5E700000246054858
:10262000026000BF0348001F006800F0800000281F
:10263000F8D07047043801400146054A054B9142E5
:1026400004D3D018884201D9012070470020FCE74C
:1026500000000008D44A0000FEF7F2F9FFF73CFB47
:10266000FFF71CFAFFF7AAFAFFF7C4FAFFF7C2F95F
:10267000084800F07BFEFDF7E1FE07A0FFF746FDEE
:10268000FFF7B4FB00F02CF8FFF7F8F900F048F87A
:1026900000BFFEE79800002048656C6C6F20576F04
:1026A000726C64210D0A000070B50546FFF75DFDF0
:1026B00048B9FFF75DFD30B908480068022805D128
:1026C000FFF750FD10B16FF0050404E0002415B1D0
:1026D000284601F017FA204670BD00006C0000206B
:1026E00010B5FFF742FD48B9FFF742FD30B90B487E
:1026F0000068022805D1FFF735FD10B16FF0050421
:1027000009E00648006820B9012004490860002457
:1027100001E04FF0FF34204610BD00006C000020A7
:1027200010B5FFF722FD48B9FFF722FD30B90C487C
:102730000068022805D1FFF715FD10B16FF0050400
:102740000CE007480068012806D10220044908600F
:1027500001F054FA002401E04FF0FF34204610BD90
:102760006C0000202DE9F04786B08046894614466B
:1027700000200490FFF7F9FC00285DD1FFF7F8FC7A
:10278000002859D12D480068022803D1FFF7EAFC40
:10279000002851D1B8F1000F4ED080261825002016
:1027A00005900DF1140A471E44B3206808B1D4F80F
:1027B00000A0A06900B1A5692DB1382D03D82079FA
:1027C00000F0010018B1002006B0BDE8F087606994
:1027D00008B160698608A06840B1E0685C2805D34C
:1027E000206918B1606908B1012708E0A06830B914
:1027F000E06820B9206910B9002700E00027012F08
:102800000CD12169A0684B463246CDE900510290B7
:102810005146404601F052FE04900DE067B904A80D
:10282000B2B24B465146CDE90050404601F014FE8D
:10283000012801D0002004900498C5E76C00002016
:102840002DE9F04105460E4616480768164800680F
:10285000001D00F0D7FF681C38B936B11248016876
:10286000091D124801F024F81AE07C190E4800688E
:102870004460BC4207D20C480168091D0C4800683E
:1028800000F0FCFF0CE008480168091D09480068D9
:1028900000F0F4FF08480068844201D20648046052
:1028A000BDE8F081300000201C000020600A0020FC
:1028B00024000020200000204C00002010B5044619
:1028C00001F002F824480068401C234908602348AE
:1028D000006840B9214804600846006801280DD10D
:1028E00000F0F8F90AE01E48006838B91B48006893
:1028F000C06AE16A884201D8184804601948006833
:10290000401C184908600846006860641649E06A7F
:102910000968884202D91449E06A0860E16A01EB5B
:102920008101124A02EB8100211D00F0C1FF00F07D
:10293000F5FF0B48006868B108480068C06AE16AA2
:10294000884207D24FF0805009490860BFF34F8F8B
:10295000BFF36F8F10BD00002C0000201C00002072
:10296000380000204800002034000020B00500207E
:1029700004ED00E008B500F0A7FF12480068E8B9D0
:10298000114800F06BFF114800F068FF0E48104935
:1029900008600E480F49086000200F4B0F4A1021B5
:1029A00000900A2001F052FA0649086008460068C3
:1029B00020B10BA10348006801F068F800F0AEFFF9
:1029C00008BD000060000020740A0020880A002072
:1029D000580000205C0000209C0A0020EC0A002027
:1029E000546D72510000000010B516E000F06CFF4D
:1029F0000C48C068C468201D00F004FF0A48006845
:102A0000401E0949086009480068401E07490860DF
:102A100000F084FF204600F05EF8044800680028BB
:102A2000E4D110BD4C0A00202C000020280000201A
:102A300070B504460D46206C70B1216CE068084406
:102A4000E0606168E068884201D32068E060284661
:102A5000226CE168FDF742FC70BD2DE9F0410446AF
:102A60000F4615464FF00008A66B206C40B9206851
:102A700060BB606801F036FE80460020606025E0A3
:102A80007DB93946226CA068FDF728FC216CA0684E
:102A90000844A060D4E90110884217D32068A060E0
:102AA00014E03946226CE068FDF718FC216CE06800
:102AB000401AE0602168E068884203D2216C6068B7
:102AC000401AE060022D01D106B1761E701CA06391
:102AD0004046BDE8F08110B5044694F8590030B97D
:102AE000206B00F039FF204600F036FF1AE094F822
:102AF0005900012803D1204600F02EFF12E094F87F
:102B00005900022801D1012000E0002050B900BF87
:102B1000502080F31188BFF34F8FBFF36F8F00BF3A
:102B200000BFFEE710BD00000146084A12681268A7
:102B30000AB9012200E000220A600A6822B9034AA9
:102B40001268D268106800E000207047580000202A
:102B500030B54FF44063174800F007042CB1C01D96
:102B600020F00700134C041B1B1B0246124C226072
:102B70000024114D6C60D018083820F007000F4C6D
:102B8000206000240D4D2D686C600C4D2D682C606C
:102B90001146441A4C60094C24680C60084D4C687E
:102BA0002C60084D4C682C604FF00044064D2C60A2
:102BB00030BD00004412002070000020780000208A
:102BC000800000207C0000208400002000BFFFF770
:102BD0000BFF064800680128F9D94FF080500449DE
:102BE0000860BFF34F8FBFF36F8FF0E7B005002091
:102BF00004ED00E02DE9F04106460D4617469846E3
:102C0000069C0DB9246000E02760E663256401217D
:102C1000204601F08BF984F84C80BDE8F0812DE965
:102C2000F05F82460F4690469B460A9E0C9C4FEAF8
:102C30008801A522206BFDF763FBA8F10100216B41
:102C400001EB800929F0070909F0070008B9012004
:102C500000E0002050B900BF502080F31188BFF37E
:102C60004F8FBFF36F8F00BF00BFFEE7002507E067
:102C7000795D04F134004155785D00B902E06D1CC6
:102C8000102DF5D300BF002143200155382E00D36D
:102C90003726E662E66400202065201D00F0EBFD8B
:102CA00004F1180000F0E7FD2461C6F13800A061CE
:102CB00064620020606584F858005A4651464846D0
:102CC00000F042FB20600B9808B10B980460BDE84F
:102CD000F09F000010B5002407E004EB84010F4AC8
:102CE00002EB810000F0BAFD641C382CF5D30C48CF
:102CF00000F0B4FD0B4800F0B1FD0B4800F0AEFD54
:102D00000A4800F0ABFD0A4800F0A8FD0448094954
:102D1000086004480849086010BD0000B0050020A4
:102D2000100A0020240A0020380A00204C0A002043
:102D3000600A0020200000202400002010B5014679
:102D4000164800E0006803688B42FBD302464368E4
:102D500013448B4204D143684C68234443600146CA
:102D60000A464B6813440468A34211D10C4C036813
:102D70002468A34208D04B680468646823444B600D
:102D800003681B680B6005E0054B1B680B6001E0E6
:102D900003680B60884200D0016010BD7000002005
:102DA000780000202DE9F04104460D4616461F46E6
:102DB0004FF0000865602461B5420CD8F01BA16992
:102DC000884202D34FF0010811E0211D0948006834
:102DD00000F054FD0BE0BE4204D2BD4202D34FF0DE
:102DE000010804E0211D0448006800F047FD40464A
:102DF000BDE8F0815C0000205800002070B5054659
:102E000000F062FDA86B08B9012400E0002400F086
:102E100085FD204670BD70B5054600F055FDA86BD8
:102E2000E96B884201D1012400E0002400F076FD26
:102E3000204670BDF8B505460F4616480068C068C4
:102E4000C468201D00F0DEFCE06901281DD1A069E6
:102E500041192B463A462046FFF7A4FFA8B10020AF
:102E600003462A4601460090204601F097FD06469B
:102E700056B900BF502080F31188BFF34F8FBFF3C6
:102E80006F8F00BF00BFFEE700BF2046616A884722
:102E9000F8BD000058000020F0B587B082E003982C
:102EA000002811DA04AE56B900BF502080F3118813
:102EB000BFF34F8FBFF36F8F00BF00BFFEE7D6E9B0
:102EC0000020B168904700BF039800286ADB059C8A
:102ED000606908B9012000E0002010B9201D00F051
:102EE00091FC02A800F0C0F8054603980A2857D2C2
:102EF000DFE800F009050731334F0608323400BF20
:102F000000BF00BF00BF0498A269811803462A468B
:102F10002046FFF747FFE8B12046616A8847E0692D
:102F2000012817D1002000900498A16942180023BD
:102F30001946204601F032FD074657B900BF502020
:102F400080F31188BFF34F8FBFF36F8F00BF00BFB7
:102F5000FEE700BF25E000BF23E000BF0498A061AA
:102F6000A06908B1012000E0002050B900BF502046
:102F700080F31188BFF34F8FBFF36F8F00BF00BF87
:102F8000FEE7A06941192B462A462046FFF70AFFB3
:102F900007E094F82C0010B9204600F0DDFC00E0BA
:102FA00000BF00BF002203A90448006801F05AF9DD
:102FB00000287FF474AF07B0F0BD0000600000206F
:102FC000F8B505460C4600F075FE684600F04CF872
:102FD0000646009820BB44B9B54206D801F020FC53
:102FE00031462846FFF726FF1CE03CB10E4800683A
:102FF000006808B9012000E000200446A91B224611
:103000000A48006800F058FD01F00AFC50B94FF082
:10301000805007490860BFF34F8FBFF36F8F01E007
:1030200001F0FEFBF8BD00005C0000206000002005
:1030300004ED00E00A490968096809B9012100E0C6
:10304000002121B14FF0FF31064A116006E004492A
:103050000968C968C868034A416811607047000080
:10306000200000204C00002070B5044601F092FAC8
:10307000054607480068854204D200F00BF801209D
:10308000206001E00020206001480560284670BDF6
:10309000680000202DE9F84332E024480068C06849
:1030A000056822480068C068C468201D00F0AAFBBB
:1030B0002046616A8847E069012821D1A069461944
:1030C000AE4207D966602461211D1848006800F0EF
:1030D000D5FB15E0002003462A4601460090204615
:1030E00001F05CFC074657B900BF502080F31188FF
:1030F000BFF34F8FBFF36F8F00BF00BFFEE700BF6E
:103100000A480068006808B9012000E00020002893
:10311000C3D00648D0F8008005480068034908601D
:103120000348C0F80080BDE8F88300005800002084
:103130005C0000200E480068401C08B9012000E037
:10314000002050B900BF502080F31188BFF34F8F8B
:10315000BFF36F8F00BF00BFFEE700BF502080F3BA
:103160001188BFF34F8FBFF36F8F00BF00BFFEE723
:103170008800002008B500BF6846FFF7D5FC04466C
:1031800020460099FFF71CFFFFF786FEF4E770B5B5
:10319000044600F099FB94F9455010E0606A08B9C4
:1031A000012000E0002038B904F1240001F0ECFA1D
:1031B00018B100F0E1FC00E003E0681E45B2002D0C
:1031C000ECDC00BFFF2084F8450000F0A7FB00F016
:1031D0007BFB94F9445010E0206908B9012000E01D
:1031E000002048B904F1100001F0CEFA08B100F057
:1031F000C3FC681E45B200E001E0002DECDC00BF1E
:10320000FF2084F8440000F089FB70BD2DE9F041F7
:1032100004464FF0000800F04DFD4648006808B92C
:10322000FFF796FC44480068204000286BD1D4B1D9
:10323000083404F00700B0B104F00700C0F1080042
:10324000044404F0070008B9012000E0002050B950
:1032500000BF502080F31188BFF34F8FBFF36F8FF3
:1032600000BF00BFFEE7002C4DD034480068844208
:1032700049D8334E3046056801E02E462D6868680F
:10328000A04202D228680028F7D12A480068854267
:1032900039D0306800F10808286830606868001B81
:1032A000102819D92F1907F0070008B9012000E0EC
:1032B000002050B900BF502080F31188BFF34F8F1A
:1032C000BFF36F8F00BF00BFFEE76868001B786028
:1032D0006C603846FFF732FD184968680968081ABB
:1032E000164908600846006816490968884203D2F2
:1032F00012480068134908600F4968680968084364
:1033000068600020286001F08BFA08F0070008B917
:10331000012000E0002050B900BF502080F3118848
:10332000BFF34F8FBFF36F8F00BF00BFFEE7404674
:10333000BDE8F08178000020840000207C0000209F
:103340007000002080000020001F4FF08073036099
:10335000001F21F001030360001F034B03601438BA
:103360000260203870470000353100080021C0F8A5
:103370000014C0F804147047D1F800345B1CC3F388
:103380000902D1F80434934204D0D1F80034C8546F
:10339000C1F8002470470000044604F1440732A03D
:1033A000216CFEF7B3FE34A0616AFEF7AFFE36A0D3
:1033B000A16AFEF7ABFE38A0E16AFEF7A7FE3AA0CD
:1033C000216BFEF7A3FE3CA06168FEF79FFE3EA0C6
:1033D000A168FEF79BFE40A0E168FEF797FE42A0C1
:1033E0002169FEF793FE44A06169FEF78FFE46A0B7
:1033F000A169FEF78BFE48A0E169FEF787FE4AA0AF
:10340000216AFEF783FE4CA0616BFEF77FFE4EA0A3
:10341000A16BFEF77BFE50A0E16BFEF777FE5248F2
:10342000FEF774FE4FF0000800BF15E03D683F1D39
:1034300008F1010805F0010070B12846FFF7FCF81B
:1034400050B125F00100061F3046FFF7CEF818B145
:10345000314646A0FEF75AFEB8F5806FE6DB45A080
:10346000FEF754FE00BFFEE77073723A20307825F5
:103470003038780D0A0000007230303A203078255C
:103480003038780D0A0000007230313A203078254B
:103490003038780D0A0000007230323A203078253A
:1034A0003038780D0A0000007230333A2030782529
:1034B0003038780D0A0000007230343A2030782518
:1034C0003038780D0A0000007230353A2030782507
:1034D0003038780D0A0000007230363A20307825F6
:1034E0003038780D0A0000007230373A20307825E5
:1034F0003038780D0A0000007230383A20307825D4
:103500003038780D0A0000007230393A20307825C2
:103510003038780D0A0000007231303A20307825BA
:103520003038780D0A0000007231313A20307825A9
:103530003038780D0A0000007231323A2030782598
:103540003038780D0A000000206C723A203078255F
:103550003038780D0A0000002070633A203078255A
:103560003038780D0A000000684A000825303878A5
:10357000200000000D0A00002DE9F04792B005463A
:10358000D5F83C90A9F10209B9F8007039462BA092
:10359000FEF7BCFD05F14404FFB2FF2F03D12668FE
:1035A000241DEE6336E007F0010010B12668241DEB
:1035B0006E6207F0020010B12668241DAE6207F0AB
:1035C000040010B12668241DEE6207F0080010B157
:1035D0002668241D2E6307F0100010B12668241DF4
:1035E0006E6007F0200010B12668241DAE6007F061
:1035F000400010B12668241DEE6007F0800010B175
:103600002668241D2E612668241DEE63314613A012
:10361000FEF77CFD4422294601A8FCF75FFE05F178
:103620004406A246AAEB06084544442201A92846BE
:10363000FCF754FE404612B0BDE8F0877573652074
:103640007377692030782530387820746F20656D65
:10365000756C617420706F700D0A00006578636589
:103660007074696F6E5F696E666F2D3E7063203D8A
:10367000203078253038780D0A000000044600BF5D
:1036800020A0216CFEF742FD22A0616AFEF73EFDFC
:1036900024A0A16AFEF73AFD26A0E16AFEF736FDF6
:1036A00028A0216BFEF732FD2AA06168FEF72EFDEF
:1036B0002CA0A168FEF72AFD2EA0E168FEF726FDEA
:1036C00030A02169FEF722FD32A06169FEF71EFDE0
:1036D00034A0A169FEF71AFD36A0E169FEF716FDD8
:1036E00038A0216AFEF712FD3AA0616BFEF70EFDCD
:1036F0003CA0A16BFEF70AFD3EA0E16BFEF706FDC4
:1037000000BFFEE77073723A203078253038780DAC
:103710000A0000007230303A203078253038780DB9
:103720000A0000007230313A203078253038780DA8
:103730000A0000007230323A203078253038780D97
:103740000A0000007230333A203078253038780D86
:103750000A0000007230343A203078253038780D75
:103760000A0000007230353A203078253038780D64
:103770000A0000007230363A203078253038780D53
:103780000A0000007230373A203078253038780D42
:103790000A0000007230383A203078253038780D31
:1037A0000A0000007230393A203078253038780D20
:1037B0000A0000007231303A203078253038780D18
:1037C0000A0000007231313A203078253038780D07
:1037D0000A0000007231323A203078253038780DF6
:1037E0000A000000206C723A203078253038780DBD
:1037F0000A0000002070633A203078253038780DB8
:103800000A00000001460A69D1E901309860D1E957
:10381000010358605068884201D1886850600020D8
:1038200008611068401E106010687047034B036009
:10383000034B0B6080231360704700008C0B00204B
:10384000E80B0020034B0360034B0B604FF48073C5
:1038500013607047E80D0020440E002000F10801BD
:1038600041604FF0FF31816000F10801C1600161EA
:1038700000210160704700210161704710B50246C8
:103880000B685C1C0CB9106907E002F1080000E04D
:103890004068446824689C42FAD944684C604C688B
:1038A000A160886041600A611468641C146010BDE6
:1038B00042684A6093688B609368596091600861C0
:1038C00003685B1C0360704700BF502080F31188C1
:1038D000BFF34F8FBFF36F8F00BF0E480068401CCF
:1038E0000C49086008460068012812D10A4800689F
:1038F000C0B208B9012000E0002050B900BF50203C
:1039000080F31188BFF34F8FBFF36F8F00BF00BFED
:10391000FEE770478800002004ED00E00D480068D5
:1039200050B900BF502080F31188BFF34F8FBFF311
:103930006F8F00BF00BFFEE706480068401E0549C4
:1039400008600846006820B9002080F3118800BF95
:1039500000BF70478800002070B506463546002E2F
:103960003FD0083D2C461F4960680968084008B1EF
:10397000012000E0002050B900BF502080F31188E2
:10398000BFF34F8FBFF36F8F00BF00BFFEE720680C
:1039900008B9012000E0002050B900BF502080F39A
:1039A0001188BFF34F8FBFF36F8F00BF00BFFEE7DB
:1039B0000C4960680968084098B1206888B90949CD
:1039C000606809688843606000F074F906496068BF
:1039D00009680844044908602046FFF7AFF900F081
:1039E0001FFF70BD840000207C00002000204FF0ED
:1039F000E02108618861064800684FF47A71B0FBE5
:103A0000F1F0401E4FF0E021486107200861704747
:103A10001000002070B5FCF7DFFB0446102C16D315
:103A200004F1E02090F8F05315480078854201DB5E
:103A3000012000E0002050B900BF502080F3118821
:103A4000BFF34F8FBFF36F8F00BF00BFFEE70D487E
:103A5000006800F4E0600C490968884201D8012040
:103A600000E0002050B900BF502080F31188BFF360
:103A70004F8FBFF36F8F00BF00BFFEE770BD000028
:103A80008C0000200CED00E0900000200246002099
:103A90000BE0084B53F8303033B9064B43F8301085
:103AA00003EBC0035A6002E0401C0828F1D300BFBA
:103AB00070470000700500202DE9F04105460E46D4
:103AC00017462C46FFF700FF94F94400401C10B93C
:103AD000002084F8440094F94500401C10B90020EF
:103AE00084F84500FFF71AFFA06B28B93A46314623
:103AF00004F1240000F062F82046FFF748FBBDE81F
:103B0000F081000070B504460025D4B11248006869
:103B100008B9012000E0002050B900BF502080F318
:103B20001188BFF34F8FBFF36F8F00BF00BFFEE759
:103B300000F0C0F800212046FEF782FE00F070FE83
:103B400005463DB94FF0805004490860BFF34F8FE0
:103B5000BFF36F8F70BD00005400002004ED00E043
:103B60000349096801600349096841607047000022
:103B70004400002030000020012001490860704707
:103B80004000002070B504460D4654B900BF5020D7
:103B900080F31188BFF34F8FBFF36F8F00BF00BF5B
:103BA000FEE70548016818312046FFF767FE01214E
:103BB0002846FEF745FE70BD1C00002070B5054686
:103BC0000E46144655B900BF502080F31188BFF34C
:103BD0004F8FBFF36F8F00BF00BFFEE7064801683D
:103BE00018312846FFF764FE0CB14FF0FF3621462E
:103BF0003046FEF725FE70BD1C00002010B586B0D3
:103C000000200590049003AA04A905A8FFF70EFE62
:103C10000022DDE904101346CDE9002102901EA127
:103C20001F48039A00F04AFC1E49086008460068D5
:103C300008B1012400E00024012C02D100F072FE42
:103C40000446012C15D100BF502080F31188BFF32A
:103C50004F8FBFF36F8F00BF4FF0FF3012490860E6
:103C600001201249086000201149086000F072F834
:103C700010E0601C08B1012000E0002050B900BF36
:103C8000502080F31188BFF34F8FBFF36F8F00BFB9
:103C900000BFFEE706B010BD49444C4500000000DF
:103CA000CD2B0008500000204C00002038000020E0
:103CB0003000002002480068401C0149086070473D
:103CC000540000201E48006818B101201D490860FA
:103CD00034E000201B4908601B4801680CE051B922
:103CE00000BF502080F31188BFF34F8FBFF36F8F59
:103CF00000BF00BFFEE7491E01EB8100134A52F8E6
:103D0000200008B9012000E000200028E7D101EBE5
:103D100081020E4B03EB820042685268426000F160
:103D200008024368934202D1426852684260426886
:103D3000D268074B1A600448016000BF704700005A
:103D4000540000204000002034000020B005002076
:103D50001C0000201CB53849084600780190FF205F
:103D60000A4610700846007800909DF8000000F0A8
:103D7000F0009DF80020904201D1012000E00020D9
:103D800050B900BF502080F31188BFF34F8FBFF3AD
:103D90006F8F00BF00BFFEE79DF8000000F05000ED
:103DA000264A10700720264A106009E0244800685F
:103DB000401E234A10609DF800004006000E00904F
:103DC0009DF8000000F080008028EFD01C480068BB
:103DD000C0F10700042801D1012000E0002050B903
:103DE00000BF502080F31188BFF34F8FBFF36F8F58
:103DF00000BF00BFFEE7124800680002104A1060D2
:103E00001046008800F4E06010600B4A01981070C2
:103E10000C48006840F470000A49086008460068D1
:103E200040F070400860FFF7E1FD0020064908609F
:103E3000FCF79CF900201CBD00E400E08C00002091
:103E40009000002020ED00E0880000202DE9F843DC
:103E500080460E4617461D46DDF82090B8F1000F4B
:103E600001D0012000E0002050B900BF502080F3B5
:103E70001188BFF34F8FBFF36F8F00BF00BFFEE706
:103E80000DB1012000E0002050B900BF502080F3A8
:103E90001188BFF34F8FBFF36F8F00BF00BFFEE7E6
:103EA00007B10EB1012000E0002050B900BF502042
:103EB00080F31188BFF34F8FBFF36F8F00BF00BF38
:103EC000FEE707B90EB9012000E0002050B900BF9D
:103ED000502080F31188BFF34F8FBFF36F8F00BF67
:103EE00000BFFEE7502000900098502801D101202B
:103EF00000E0002050B900BF502080F31188BFF3CC
:103F00004F8FBFF36F8F00BF00BFFEE72C464CB151
:103F1000012084F846004B463A463146404600941C
:103F2000FEF768FE2046BDE8F883000070B5054640
:103F30000E462C4654B900BF502080F31188BFF3C1
:103F40004F8FBFF36F8F00BF00BFFEE7FFF7BCFCD2
:103F5000D4E90F12206801FB020060600020A0631A
:103F60002068A060E06B401E226C216800FB0210FC
:103F7000E060FF2084F8440084F845009EB9206981
:103F800008B9012000E00020A8B904F1100000F0F9
:103F9000FBFB80B14FF0805009490860BFF34F8FA1
:103FA000BFF36F8F07E004F11000FFF757FC04F137
:103FB0002400FFF753FCFFF7B1FC012070BD0000A7
:103FC00004ED00E02DE9FF4383B0064688461D4618
:103FD0004FF00009344654B900BF502080F31188D7
:103FE000BFF34F8FBFF36F8F00BF00BFFEE7B8F185
:103FF000000F01D1206C08B9012000E0002050B969
:1040000000BF502080F31188BFF34F8FBFF36F8F35
:1040100000BF00BFFEE7022D02D1E06B012801D1F5
:10402000012000E0002050B900BF502080F311882B
:10403000BFF34F8FBFF36F8F00BF00BFFEE700F0ED
:1040400099FA08B9059808B9012000E0002050B994
:1040500000BF502080F31188BFF34F8FBFF36F8FE5
:1040600000BF00BFFEE700BFFFF72EFCA06BE16BB7
:10407000884201D3022D28D12A4641462046FEF728
:10408000ECFC0746606A08B9012000E0002068B92E
:1040900004F1240000F078FB88B14FF080503249E1
:1040A0000860BFF34F8FBFF36F8F08E03FB14FF051
:1040B00080502D490860BFF34F8FBFF36F8FFFF71C
:1040C0002DFC012007B0BDE8F083059818B9FFF773
:1040D00025FC0020F6E7B9F1000F04D101A8FFF795
:1040E0003FFD4FF00109FFF719FCFFF7E3FDFFF774
:1040F000EBFB94F94400401C10B9002084F8440004
:1041000094F94500401C10B9002084F84500FFF7E1
:1041100005FC05A901A800F059F9F0B92046FEF701
:104120007AFEA0B104F110000599FFF72BFD20469F
:10413000FFF72DF800F074FB002895D14FF0805068
:1041400009490860BFF34F8FBFF36F8F8CE720469C
:10415000FFF71DF800F064FB86E72046FFF717F82D
:1041600000F05EFB0020ADE704ED00E02DE9F05F1C
:1041700007468A4690461E463C4654B900BF50202A
:1041800080F31188BFF34F8FBFF36F8F00BF00BF65
:10419000FEE7BAF1000F01D1206C08B9012000E060
:1041A000002050B900BF502080F31188BFF34F8F1B
:1041B000BFF36F8F00BF00BFFEE7022E02D1E06B9E
:1041C000012801D1012000E0002050B900BF50209B
:1041D00080F31188BFF34F8FBFF36F8F00BF00BF15
:1041E000FEE7FFF717FC00BF5021EFF3118081F3CA
:1041F0001188BFF34F8FBFF36F8F00BF0546A06BD1
:10420000E16B884201D3022E23D194F945B03246A6
:1042100051462046FEF721FC0BF1010088B9606A87
:1042200008B9012000E0002080B904F1240000F06A
:10423000ABFA58B1B8F1000F08D00120C8F800005F
:1042400004E00BF1010040B284F845004FF0010991
:1042500001E04FF0000900BF85F3118800BF484618
:10426000BDE8F09F2DE9F74183B005460E464FF0BB
:1042700000082C4654B900BF502080F31188BFF3CA
:104280004F8FBFF36F8F00BF00BFFEE70EB9206CEA
:1042900008B9012000E0002050B900BF502080F391
:1042A0001188BFF34F8FBFF36F8F00BF00BFFEE7D2
:1042B00000F060F908B9059808B9012000E0002075
:1042C00050B900BF502080F31188BFF34F8FBFF368
:1042D0006F8F00BF00BFFEE700BFFFF7F5FAA76BC7
:1042E000F7B131462046FEF7A3FB781EA063206994
:1042F00008B9012000E0002060B904F1100000F0CE
:1043000043FA38B14FF080502F490860BFF34F8F08
:10431000BFF36F8FFFF702FB012006B0BDE8F0810D
:10432000059818B9FFF7FAFA0020F6E7B8F1000F80
:1043300004D101A8FFF714FC4FF00108FFF7EEFAD3
:10434000FFF7B8FCFFF7C0FA94F94400401C10B91D
:10435000002084F8440094F94500401C10B9002066
:1043600084F84500FFF7DAFA05A901A800F02EF855
:10437000F0B92046FEF742FDA0B104F124000599F2
:10438000FFF700FC2046FEF702FF00F049FA002884
:10439000A3D14FF080500C490860BFF34F8FBFF39B
:1043A0006F8F9AE72046FEF7F2FE00F039FA94E7A5
:1043B0002046FEF7ECFE00F033FA2046FEF71EFD25
:1043C00000288AD00020A8E704ED00E070B505467B
:1043D0000C4655B900BF502080F31188BFF34F8FB2
:1043E000BFF36F8F00BF00BFFEE754B900BF50207E
:1043F00080F31188BFF34F8FBFF36F8F00BF00BFF3
:10440000FEE7FFF761FA124802686868131A20682D
:10441000401C08B9002617E00E4928680968884240
:1044200004D06868904201D801260DE020689842C7
:1044300007D92068C01A20602846FFF791FB0026A4
:1044400002E0002020600126FFF768FA304670BDC8
:1044500030000020440000202DE9FF4F85B0804649
:1044600089461746DDE912ABB800FEF7CFFE0646D7
:1044700056B15C20FEF7CAFE04460CB1266304E088
:104480003046FFF769FA00E000248CB1002084F880
:104490005900CDE900ABCDE902403A4649464046D5
:1044A000089BFEF7BCFB2046FEF708FA012501E059
:1044B0004FF0FF35284609B0BDE8F08F2DE9F04FE9
:1044C00085B00746884691469A46DDE90EB6109CAF
:1044D0000EB1012000E0002050B900BF502080F351
:1044E0001188BFF34F8FBFF36F8F00BF00BFFEE790
:1044F0000CB1012000E0002050B900BF502080F333
:104500001188BFF34F8FBFF36F8F00BF00BFFEE76F
:104510005C20039003985C2801D1012000E000207A
:1045200050B900BF502080F31188BFF34F8FBFF305
:104530006F8F00BF00BFFEE7B4B1AEB125462C4679
:104540002E63022085F85900002004A953464A46EC
:10455000CDE900B1CDE9025041463846FEF75FFB98
:104560002846FEF7ABF901E000200490049805B05E
:10457000BDE8F08F0549096809B9012005E0044943
:10458000096809B9022000E00020704738000020C7
:1045900054000020014908687047000030000020E6
:1045A0002DE9F0414FF0000843480068002876D11B
:1045B00042480068451C4148056015BB40480068FA
:1045C000006808B9012000E0002050B900BF502069
:1045D00080F31188BFF34F8FBFF36F8F00BF00BF11
:1045E000FEE73748076837480068354908603548AE
:1045F000076035480068401C33490860FEF71AFD23
:1046000000BF3248006885423BD300BF2C48006899
:10461000006808B9012000E0002020B14FF0FF3011
:104620002A4908602CE026480068C068C4686668AB
:10463000B54202D22548066022E0201DFFF7E2F8CD
:10464000A06A18B104F11800FFF7DCF82049E06A0D
:104650000968884202D91E49E06A0860E16A01EBF4
:1046600081011C4A02EB8100211DFFF721F91A4943
:10467000E06A0968C96A8842C8D34FF00108C5E7F3
:1046800000BF15480068C06A00EB8000114951F86E
:104690002000012801D94FF0010805E0FFE70F488D
:1046A0000068401C0D4908600D48006808B14FF0D3
:1046B00001084046BDE8F081540000203000002091
:1046C0002000002024000020440000204C00002096
:1046D00034000020B00500201C0000203C00002019
:1046E0004000002070B505462C460026002D43D022
:1046F00022480068844201D1012000E0002050B926
:1047000000BF502080F31188BFF34F8FBFF36F8F2E
:1047100000BF00BFFEE7206D50B900BF502080F3FE
:104720001188BFF34F8FBFF36F8F00BF00BFFEE74D
:10473000206D401E2065E16CE06A88421CD0206D2F
:10474000D0B9201DFFF75EF8E06CE062E06AC0F1CE
:104750003800A0610A49E06A0968884202D908491C
:10476000E06A0860E16A01EB8101064A02EB810020
:10477000211DFFF79DF80126304670BD1C0000206A
:1047800034000020B005002070B50646F068C4680B
:1047900054B900BF502080F31188BFF34F8FBFF38F
:1047A0006F8F00BF00BFFEE704F11800FFF72AF883
:1047B00015480068A0B9201DFFF724F81349E06AE6
:1047C0000968884202D91149E06A0860E16A01EB90
:1047D00081010F4A02EB8100211DFFF769F804E017
:1047E00004F118010B48FFF763F80B49E06A096808
:1047F000C96A884204D9012501200849086000E0FF
:104800000025284670BD0000540000203400002020
:10481000B0050020380A00201C00002040000020C5
:1048200070B5002400263648006850B900BF5020FB
:1048300080F31188BFF34F8FBFF36F8F00BF00BFAE
:10484000FEE7FFF741F82E480068401E2C4908603B
:104850000846006800284ED12A48006800284AD03F
:1048600023E02948C068C46804F11800FEF7CAFFB5
:10487000201DFEF7C7FF2549E06A0968884202D972
:104880002249E06A0860E16A01EB8101204A02EBFB
:104890008100211DFFF70CF81E49E06A0968C96A0A
:1048A000884202D301201C4908601748006808B9F3
:1048B000012000E000200028D3D00CB1FEF7BAFBA5
:1048C0001648056865B100BFFFF76AFE10B1012008
:1048D000114908606D1E002DF6D100200F490860B7
:1048E0000D48006838B1012630070D490860BFF354
:1048F0004F8FBFF36F8FFFF711F8304670BD000088
:10490000540000202C000020380A00203400002031
:10491000B00500201C000020400000203C000020CA
:1049200004ED00E010B586B00024FEF723F8164829
:104930000068D0B100200590049003AA04A905A83E
:10494000FEF780FF0222DDE904100023CDE90021FB
:1049500002900EA10F48039AFFF7B0FD0E490860C0
:104960000846006800B1012400BF54B900BF5020C0
:1049700080F31188BFF34F8FBFF36F8F00BF00BF6D
:10498000FEE7204606B010BD60000020546D722086
:104990005376630075310008640000202DE9FF475D
:1049A00004460D4616461F46DDF830804FF00009DC
:1049B00054B900BF502080F31188BFF34F8FBFF36D
:1049C0006F8F00BF00BFFEE71448006810B300956A
:1049D00001960294062D15DAFFF7CCFD022808D1C6
:1049E0000023424669460D480068FFF7EBFA81460E
:1049F00010E000231A46694608480068FFF7E2FA0B
:104A0000814607E000233A46694604480068FFF7FC
:104A1000ADFB8146484604B0BDE8F0876000002049
:104A20005C4A0008000000000000000000000000D8
:104A3000000000000002000018000000000000005C
:104A4000000000000000000000000000010203045C
:104A5000060708090000000001020304646566619E
:104A6000756C745461736B00757365207468652090
:104A7000636F6D6D616E6420746F20676574206371
:104A8000616C6C6261636B3A2061726D2D6E6F6E4A
:104A9000652D656162692D61646472326C696E6551
:104AA000202D6520796F75722E617866202D61202A
:104AB0002D662000D44A0008000000209800000065
:104AC000762100086C4B000898000020B0210000FF
:104AD0008621000800000000000000001000000017
:104AE000010000000024F4000000000101000000AB
:104AF00000000000000000000000000000000000B6
:104B000000000000000000000000000000000000A5
:104B10000000000000000000000000000000000095
:104B20000000000000000000000000000000000085
:104B30000000000000000000000000000000000075
:104B40000000000000000000000000000000000065
:104B5000000000000000000000000000AAAAAAAAAD
:0C4B600000000000000000000000000049
:0400000508000131BD
:00000001FF
